{
  "address": "0x6D45D85488a21E09c2d2485BFA96bf2703B5228A",
  "abi": [
    {
      "inputs": [],
      "stateMutability": "nonpayable",
      "type": "constructor"
    },
    {
      "inputs": [],
      "name": "InvalidShortString",
      "type": "error"
    },
    {
      "inputs": [
        {
          "internalType": "string",
          "name": "str",
          "type": "string"
        }
      ],
      "name": "StringTooLong",
      "type": "error"
    },
    {
      "anonymous": false,
      "inputs": [
        {
          "indexed": false,
          "internalType": "bytes32",
          "name": "dataHash",
          "type": "bytes32"
        }
      ],
      "name": "CaptchaVerified",
      "type": "event"
    },
    {
      "anonymous": false,
      "inputs": [],
      "name": "EIP712DomainChanged",
      "type": "event"
    },
    {
      "inputs": [],
      "name": "eip712Domain",
      "outputs": [
        {
          "internalType": "bytes1",
          "name": "fields",
          "type": "bytes1"
        },
        {
          "internalType": "string",
          "name": "name",
          "type": "string"
        },
        {
          "internalType": "string",
          "name": "version",
          "type": "string"
        },
        {
          "internalType": "uint256",
          "name": "chainId",
          "type": "uint256"
        },
        {
          "internalType": "address",
          "name": "verifyingContract",
          "type": "address"
        },
        {
          "internalType": "bytes32",
          "name": "salt",
          "type": "bytes32"
        },
        {
          "internalType": "uint256[]",
          "name": "extensions",
          "type": "uint256[]"
        }
      ],
      "stateMutability": "view",
      "type": "function"
    },
    {
      "inputs": [
        {
          "internalType": "bytes32",
          "name": "dataHash",
          "type": "bytes32"
        },
        {
          "internalType": "uint256",
          "name": "validAfter",
          "type": "uint256"
        },
        {
          "internalType": "uint256",
          "name": "validBefore",
          "type": "uint256"
        },
        {
          "internalType": "bytes",
          "name": "signature",
          "type": "bytes"
        },
        {
          "internalType": "address",
          "name": "requiredSigner",
          "type": "address"
        }
      ],
      "name": "executeWithAuthorization",
      "outputs": [],
      "stateMutability": "nonpayable",
      "type": "function"
    }
  ],
  "transactionHash": "0x37f562336bfed44152a6a8c1b4af7b32ea9240657c47e62cc2f9a0da0597775d",
  "args": [],
  "numDeployments": 2,
  "solcInputHash": "337900a6bba932064a800282be9fb075",
  "bytecode": "0x6101606040523480156200001257600080fd5b506040518060400160405280600f81526020017f43617074636861566572696669657200000000000000000000000000000000008152506040518060400160405280600181526020017f3100000000000000000000000000000000000000000000000000000000000000815250620000956000836200013560201b90919060201c565b6101208181525050620000b36001826200013560201b90919060201c565b6101408181525050818051906020012060e08181525050808051906020012061010081815250504660a08181525050620000f26200018d60201b60201c565b608081815250503073ffffffffffffffffffffffffffffffffffffffff1660c08173ffffffffffffffffffffffffffffffffffffffff16815250505050620007e5565b60006020835110156200015b576200015383620001ea60201b60201c565b905062000187565b826200016d836200025760201b60201c565b60000190816200017e9190620004db565b5060ff60001b90505b92915050565b60007f8b73c3c69bb8fe3d512ecc4cf759cc79239f7b179b0ffacaa9a75d522b39400f60e051610100514630604051602001620001cf95949392919062000633565b60405160208183030381529060405280519060200120905090565b600080829050601f815111156200023a57826040517f305a27a90000000000000000000000000000000000000000000000000000000081526004016200023191906200071f565b60405180910390fd5b805181620002489062000775565b60001c1760001b915050919050565b6000819050919050565b600081519050919050565b7f4e487b7100000000000000000000000000000000000000000000000000000000600052604160045260246000fd5b7f4e487b7100000000000000000000000000000000000000000000000000000000600052602260045260246000fd5b60006002820490506001821680620002e357607f821691505b602082108103620002f957620002f86200029b565b5b50919050565b60008190508160005260206000209050919050565b60006020601f8301049050919050565b600082821b905092915050565b600060088302620003637fffffffffffffffffffffffffffffffffffffffffffffffffffffffffffffffff8262000324565b6200036f868362000324565b95508019841693508086168417925050509392505050565b6000819050919050565b6000819050919050565b6000620003bc620003b6620003b08462000387565b62000391565b62000387565b9050919050565b6000819050919050565b620003d8836200039b565b620003f0620003e782620003c3565b84845462000331565b825550505050565b600090565b62000407620003f8565b62000414818484620003cd565b505050565b5b818110156200043c5762000430600082620003fd565b6001810190506200041a565b5050565b601f8211156200048b576200045581620002ff565b620004608462000314565b8101602085101562000470578190505b620004886200047f8562000314565b83018262000419565b50505b505050565b600082821c905092915050565b6000620004b06000198460080262000490565b1980831691505092915050565b6000620004cb83836200049d565b9150826002028217905092915050565b620004e68262000261565b67ffffffffffffffff8111156200050257620005016200026c565b5b6200050e8254620002ca565b6200051b82828562000440565b600060209050601f8311600181146200055357600084156200053e578287015190505b6200054a8582620004bd565b865550620005ba565b601f1984166200056386620002ff565b60005b828110156200058d5784890151825560018201915060208501945060208101905062000566565b86831015620005ad5784890151620005a9601f8916826200049d565b8355505b6001600288020188555050505b505050505050565b6000819050919050565b620005d781620005c2565b82525050565b620005e88162000387565b82525050565b600073ffffffffffffffffffffffffffffffffffffffff82169050919050565b60006200061b82620005ee565b9050919050565b6200062d816200060e565b82525050565b600060a0820190506200064a6000830188620005cc565b620006596020830187620005cc565b620006686040830186620005cc565b620006776060830185620005dd565b62000686608083018462000622565b9695505050505050565b600082825260208201905092915050565b60005b83811015620006c1578082015181840152602081019050620006a4565b60008484015250505050565b6000601f19601f8301169050919050565b6000620006eb8262000261565b620006f7818562000690565b935062000709818560208601620006a1565b6200071481620006cd565b840191505092915050565b600060208201905081810360008301526200073b8184620006de565b905092915050565b600081519050919050565b6000819050602082019050919050565b60006200076c8251620005c2565b80915050919050565b6000620007828262000743565b826200078e846200074e565b90506200079b816200075e565b92506020821015620007de57620007d97fffffffffffffffffffffffffffffffffffffffffffffffffffffffffffffffff8360200360080262000324565b831692505b5050919050565b60805160a05160c05160e05161010051610120516101405161131b6200083e600039600060c201526000608e015260006108ba01526000610899015260006105c90152600061061f01526000610648015261131b6000f3fe608060405234801561001057600080fd5b50600436106100365760003560e01c806384b0196e1461003b578063d8ec16631461005f575b600080fd5b61004361007b565b6040516100569796959493929190610be8565b60405180910390f35b61007960048036038101906100749190610d5f565b61017d565b005b6000606080600080600060606100bb60007f000000000000000000000000000000000000000000000000000000000000000061032190919063ffffffff16565b6100ef60017f000000000000000000000000000000000000000000000000000000000000000061032190919063ffffffff16565b46306000801b600067ffffffffffffffff8111156101105761010f610df9565b5b60405190808252806020026020018201604052801561013e5781602001602082028036833780820191505090505b507f0f00000000000000000000000000000000000000000000000000000000000000959493929190965096509650965096509650965090919293949596565b6002600087815260200190815260200160002060009054906101000a900460ff16156101de576040517f08c379a00000000000000000000000000000000000000000000000000000000081526004016101d590610e74565b60405180910390fd5b844211610220576040517f08c379a000000000000000000000000000000000000000000000000000000000815260040161021790610ee0565b60405180910390fd5b834210610262576040517f08c379a000000000000000000000000000000000000000000000000000000000815260040161025990610f4c565b60405180910390fd5b600115156102748787878787876103d1565b1515146102b6576040517f08c379a00000000000000000000000000000000000000000000000000000000081526004016102ad90610fb8565b60405180910390fd5b60016002600088815260200190815260200160002060006101000a81548160ff0219169083151502179055507f1ad43fc8696a4aab488a9a2f3af5b338eba2dc01d08f82e058bfbe9de06cef3d866040516103119190610fd8565b60405180910390a1505050505050565b606060ff60001b831461033e57610337836104c0565b90506103cb565b81805461034a90611022565b80601f016020809104026020016040519081016040528092919081815260200182805461037690611022565b80156103c35780601f10610398576101008083540402835291602001916103c3565b820191906000526020600020905b8154815290600101906020018083116103a657829003601f168201915b505050505090505b92915050565b6000807ff29b3222836e59f6c101894848e63c39f06cf82ef2391861d440344c9bae6ab588888860405160200161040b9493929190611053565b604051602081830303815290604052805190602001209050600061042e82610534565b905060006104808288888080601f016020809104026020016040519081016040528093929190818152602001838380828437600081840152601f19601f8201169050808301925050505050505061054e565b90508473ffffffffffffffffffffffffffffffffffffffff168173ffffffffffffffffffffffffffffffffffffffff161493505050509695505050505050565b606060006104cd83610575565b90506000602067ffffffffffffffff8111156104ec576104eb610df9565b5b6040519080825280601f01601f19166020018201604052801561051e5781602001600182028036833780820191505090505b5090508181528360208201528092505050919050565b60006105476105416105c5565b8361067c565b9050919050565b600080600061055d85856106bd565b9150915061056a8161070e565b819250505092915050565b60008060ff8360001c169050601f8111156105bc576040517fb3512b0c00000000000000000000000000000000000000000000000000000000815260040160405180910390fd5b80915050919050565b60007f000000000000000000000000000000000000000000000000000000000000000073ffffffffffffffffffffffffffffffffffffffff163073ffffffffffffffffffffffffffffffffffffffff1614801561064157507f000000000000000000000000000000000000000000000000000000000000000046145b1561066e577f00000000000000000000000000000000000000000000000000000000000000009050610679565b610676610874565b90505b90565b60006040517f190100000000000000000000000000000000000000000000000000000000000081528360028201528260228201526042812091505092915050565b60008060418351036106fe5760008060006020860151925060408601519150606086015160001a90506106f28782858561090a565b94509450505050610707565b60006002915091505b9250929050565b6000600481111561072257610721611098565b5b81600481111561073557610734611098565b5b0315610871576001600481111561074f5761074e611098565b5b81600481111561076257610761611098565b5b036107a2576040517f08c379a000000000000000000000000000000000000000000000000000000000815260040161079990611113565b60405180910390fd5b600260048111156107b6576107b5611098565b5b8160048111156107c9576107c8611098565b5b03610809576040517f08c379a00000000000000000000000000000000000000000000000000000000081526004016108009061117f565b60405180910390fd5b6003600481111561081d5761081c611098565b5b8160048111156108305761082f611098565b5b03610870576040517f08c379a000000000000000000000000000000000000000000000000000000000815260040161086790611211565b60405180910390fd5b5b50565b60007f8b73c3c69bb8fe3d512ecc4cf759cc79239f7b179b0ffacaa9a75d522b39400f7f00000000000000000000000000000000000000000000000000000000000000007f000000000000000000000000000000000000000000000000000000000000000046306040516020016108ef959493929190611231565b60405160208183030381529060405280519060200120905090565b6000807f7fffffffffffffffffffffffffffffff5d576e7357a4501ddfe92f46681b20a08360001c11156109455760006003915091506109e3565b60006001878787876040516000815260200160405260405161096a94939291906112a0565b6020604051602081039080840390855afa15801561098c573d6000803e3d6000fd5b505050602060405103519050600073ffffffffffffffffffffffffffffffffffffffff168173ffffffffffffffffffffffffffffffffffffffff16036109da576000600192509250506109e3565b80600092509250505b94509492505050565b60007fff0000000000000000000000000000000000000000000000000000000000000082169050919050565b610a21816109ec565b82525050565b600081519050919050565b600082825260208201905092915050565b60005b83811015610a61578082015181840152602081019050610a46565b60008484015250505050565b6000601f19601f8301169050919050565b6000610a8982610a27565b610a938185610a32565b9350610aa3818560208601610a43565b610aac81610a6d565b840191505092915050565b6000819050919050565b610aca81610ab7565b82525050565b600073ffffffffffffffffffffffffffffffffffffffff82169050919050565b6000610afb82610ad0565b9050919050565b610b0b81610af0565b82525050565b6000819050919050565b610b2481610b11565b82525050565b600081519050919050565b600082825260208201905092915050565b6000819050602082019050919050565b610b5f81610ab7565b82525050565b6000610b718383610b56565b60208301905092915050565b6000602082019050919050565b6000610b9582610b2a565b610b9f8185610b35565b9350610baa83610b46565b8060005b83811015610bdb578151610bc28882610b65565b9750610bcd83610b7d565b925050600181019050610bae565b5085935050505092915050565b600060e082019050610bfd600083018a610a18565b8181036020830152610c0f8189610a7e565b90508181036040830152610c238188610a7e565b9050610c326060830187610ac1565b610c3f6080830186610b02565b610c4c60a0830185610b1b565b81810360c0830152610c5e8184610b8a565b905098975050505050505050565b600080fd5b600080fd5b610c7f81610b11565b8114610c8a57600080fd5b50565b600081359050610c9c81610c76565b92915050565b610cab81610ab7565b8114610cb657600080fd5b50565b600081359050610cc881610ca2565b92915050565b600080fd5b600080fd5b600080fd5b60008083601f840112610cf357610cf2610cce565b5b8235905067ffffffffffffffff811115610d1057610d0f610cd3565b5b602083019150836001820283011115610d2c57610d2b610cd8565b5b9250929050565b610d3c81610af0565b8114610d4757600080fd5b50565b600081359050610d5981610d33565b92915050565b60008060008060008060a08789031215610d7c57610d7b610c6c565b5b6000610d8a89828a01610c8d565b9650506020610d9b89828a01610cb9565b9550506040610dac89828a01610cb9565b945050606087013567ffffffffffffffff811115610dcd57610dcc610c71565b5b610dd989828a01610cdd565b93509350506080610dec89828a01610d4a565b9150509295509295509295565b7f4e487b7100000000000000000000000000000000000000000000000000000000600052604160045260246000fd5b7f6861736865732063616e206f6e6c792062652075736564206f6e636500000000600082015250565b6000610e5e601c83610a32565b9150610e6982610e28565b602082019050919050565b60006020820190508181036000830152610e8d81610e51565b9050919050565b7f417574686f72697a6174696f6e206e6f74207965742076616c69640000000000600082015250565b6000610eca601b83610a32565b9150610ed582610e94565b602082019050919050565b60006020820190508181036000830152610ef981610ebd565b9050919050565b7f417574686f72697a6174696f6e20657870697265640000000000000000000000600082015250565b6000610f36601583610a32565b9150610f4182610f00565b602082019050919050565b60006020820190508181036000830152610f6581610f29565b9050919050565b7f6861736820636f756c64206e6f74206265207665726966696564000000000000600082015250565b6000610fa2601a83610a32565b9150610fad82610f6c565b602082019050919050565b60006020820190508181036000830152610fd181610f95565b9050919050565b6000602082019050610fed6000830184610b1b565b92915050565b7f4e487b7100000000000000000000000000000000000000000000000000000000600052602260045260246000fd5b6000600282049050600182168061103a57607f821691505b60208210810361104d5761104c610ff3565b5b50919050565b60006080820190506110686000830187610b1b565b6110756020830186610b1b565b6110826040830185610ac1565b61108f6060830184610ac1565b95945050505050565b7f4e487b7100000000000000000000000000000000000000000000000000000000600052602160045260246000fd5b7f45434453413a20696e76616c6964207369676e61747572650000000000000000600082015250565b60006110fd601883610a32565b9150611108826110c7565b602082019050919050565b6000602082019050818103600083015261112c816110f0565b9050919050565b7f45434453413a20696e76616c6964207369676e6174757265206c656e67746800600082015250565b6000611169601f83610a32565b915061117482611133565b602082019050919050565b600060208201905081810360008301526111988161115c565b9050919050565b7f45434453413a20696e76616c6964207369676e6174757265202773272076616c60008201527f7565000000000000000000000000000000000000000000000000000000000000602082015250565b60006111fb602283610a32565b91506112068261119f565b604082019050919050565b6000602082019050818103600083015261122a816111ee565b9050919050565b600060a0820190506112466000830188610b1b565b6112536020830187610b1b565b6112606040830186610b1b565b61126d6060830185610ac1565b61127a6080830184610b02565b9695505050505050565b600060ff82169050919050565b61129a81611284565b82525050565b60006080820190506112b56000830187610b1b565b6112c26020830186611291565b6112cf6040830185610b1b565b6112dc6060830184610b1b565b9594505050505056fea26469706673582212202001b9606ea42827a626877b394c719db3b84869cd04bf489d8bd4968462fecd64736f6c63430008170033",
  "devdoc": {
    "events": {
      "EIP712DomainChanged()": {
        "details": "MAY be emitted to signal that the domain could have changed."
      }
    },
    "kind": "dev",
    "methods": {
      "eip712Domain()": {
        "details": "See {EIP-5267}. _Available since v4.9._"
      }
    },
    "version": 1
  },
  "userdoc": {
    "kind": "user",
    "methods": {},
    "version": 1
  },
  "storageLayout": {
    "storage": [
      {
        "astId": 978,
        "contract": "contracts/CaptchaVerifier.sol:CaptchaVerifier",
        "label": "_nameFallback",
        "offset": 0,
        "slot": "0",
        "type": "t_string_storage"
      },
      {
        "astId": 980,
        "contract": "contracts/CaptchaVerifier.sol:CaptchaVerifier",
        "label": "_versionFallback",
        "offset": 0,
        "slot": "1",
        "type": "t_string_storage"
      },
      {
        "astId": 2133,
        "contract": "contracts/CaptchaVerifier.sol:CaptchaVerifier",
        "label": "usedDataHashes",
        "offset": 0,
        "slot": "2",
        "type": "t_mapping(t_bytes32,t_bool)"
      }
    ],
    "types": {
      "t_bool": {
        "encoding": "inplace",
        "label": "bool",
        "numberOfBytes": "1"
      },
      "t_bytes32": {
        "encoding": "inplace",
        "label": "bytes32",
        "numberOfBytes": "32"
      },
      "t_mapping(t_bytes32,t_bool)": {
        "encoding": "mapping",
        "key": "t_bytes32",
        "label": "mapping(bytes32 => bool)",
        "numberOfBytes": "32",
        "value": "t_bool"
      },
      "t_string_storage": {
        "encoding": "bytes",
        "label": "string",
        "numberOfBytes": "32"
      }
    }
  }
}